:020000040800F2
:1000000000000320A5160008C9150008CB1500083C
:10001000CD150008CF150008D1150008000000001C
:10002000000000000000000000000000D3150008E0
:10003000D515000800000000D7150008D9150008E4
:10004000F5160008F5160008F5160008F516000864
:10005000F5160008F5160008F5160008F516000854
:10006000F5160008F5160008F5160008F516000844
:10007000F5160008F5160008F5160008F516000834
:10008000F5160008F5160008F5160008F516000824
:10009000F5160008F5160008F5160008F516000814
:1000A000F5160008F5160008F5160008F516000804
:1000B000F5160008F5160008F5160008F5160008F4
:1000C000F5160008F5160008F5160008F5160008E4
:1000D000F5160008F5160008F5160008F5160008D4
:1000E000F5160008F5160008F5160008F5160008C4
:1000F000F5160008F5160008F5160008F5160008B4
:10010000F5160008F5160008F5160008F5160008A3
:10011000F5160008F5160008F5160008F516000893
:10012000F5160008F5160008F5160008F516000883
:10013000F5160008F5160008F5160008F516000873
:10014000F5160008F5160008F5160008F516000863
:10015000F5160008F5160008F5160008F516000853
:10016000F5160008F5160008F5160008F516000843
:10017000F5160008F5160008F51600080000000046
:10018000F5160008F5160008F5160008F516000823
:10019000F5160008F5160008F5160008F516000813
:0C01A000F5160008F5160008F51600081A
:1001B00053B94AB9002908BF00281CBF4FF0FF31CE
:1001C0004FF0FF3000F00CB8ADF1080C6DE904CE33
:1001D00001F012FEDDF804E0DDE9022304B070470F
:1001E000704700BF00000000000000000000000099
:1001F00001F0FF01102A2BDB10F0070F08D010F8D8
:10020000013B013A8B422DD010F0070F42B3F6D1DB
:10021000F0B441EA012141EA014122F007047FF0F4
:1002200000070023F0E80256083C85EA010586EA4B
:10023000010685FA47F5A3FA87F586FA47F6A5FA87
:1002400087F68EB9EED1F0BC01F0FF0102F0070293
:1002500032B110F8013B013A83EA010313B1F8D13E
:100260000020704701387047002D06BF354603381F
:10027000073815F0010F07D1013015F4807F02BF58
:10028000013015F4C03F0130F0BC0138704700BFA9
:100290000348044B834202D0034B03B11847704715
:1002A0006800002068000020000000000548064BA0
:1002B0001B1AD90F01EBA301491002D0034B03B164
:1002C0001847704768000020680000200000000008
:1002D00010B5064C237843B9FFF7DAFF044B13B18E
:1002E0000448AFF300800123237010BD6800002094
:1002F00000000000CC2F000808B5054B1BB10549D4
:100300000548AFF30080BDE80840FFF7CFBF00BF4E
:10031000000000006C000020CC2F0008034AD2F837
:10032000883043F47003C2F88830704700ED00E075
:10033000026802F10C0353E8003F23F490730C327F
:1003400042E8003102680029F2D102F1140353E8B7
:10035000003F23F0010302F1140C4CE800310029A6
:10036000F3D1036B012B0BD102F10C0353E8003FD7
:1003700023F0100302F10C0C4CE800310029F3D1FA
:10038000202380F842300023036370470268C1686D
:1003900038B5136923F440530B4313610546836852
:1003A0000069D168034368690343E86921F4164191
:1003B00021F00C0103430B43D3605369A96923F473
:1003C00040730B4353611F4B9A4203D003F5806384
:1003D0009A4224D100F0C4FBEA691921B2F5004F1A
:1003E000D5E90043A0FB01011CD1DA184FF000054C
:1003F00045EB0503FFF7DCFE6422B0FBF2F102FBE4
:100400001103DB003233B3FBF2F303F007025B00AE
:1004100002EB011203F4F8731344A36038BD00F03B
:100420008FFBD9E79A009B0FFFF7C2FE6422B0FB57
:10043000F2F102FB11031B013233B3FBF2F303EBC6
:100440000113EAE700100140F7B505460C461746D0
:100450001E462A68136834EA030301D1002021E014
:10046000701CF7D000F020FFC01B86421CD3DEB109
:100470002B68DA685107ECD5802CEAD0402CE8D004
:100480001A681207E5D5002401941A6801925B6886
:1004900001932846019BFFF74BFF08236B6485F807
:1004A0004040012003B0F0BD0320FBE710B5044637
:1004B00048B390F8413003F0FF021BB980F84020A8
:1004C00001F024F82268242384F84130D36823F40F
:1004D0000053D3602046FFF759FF23681A6922F4BE
:1004E00090421A615A6922F02A025A61DA6842F48B
:1004F0000052DA6000202023606484F8413084F8E0
:100500004230606310BD0120FCE72DE9F8439846B6
:1005100090F84130202B04460E4617463FD1002963
:100520003FD0002A3DD021230025456480F841308A
:1005300000F0BAFEA368A784B3F5805F8146E78424
:1005400003D123690BB935461E46E38C9BB253B9E0
:1005500043464A4640212046FFF776FF202350B904
:1005600084F841300AE043464A4680212046FFF79E
:100570006BFF28B1202384F841300320BDE8F883C5
:1005800022684EB935F8023BC3F308035360E18C8F
:10059000013989B2E184D8E716F8013BF6E7022079
:1005A000ECE70120EAE72DE9F8431F4690F84230D6
:1005B000202B04460E46914648D1002948D0002AF7
:1005C00046D022230025456480F84230056300F0C0
:1005D0006BFEA368A4F82C90B3F5805F8046A4F866
:1005E0002E9003D123690BB935461E46E08D80B2AB
:1005F00018B9202384F842300AE03B4642462021C5
:100600002046FFF721FF28B1202384F84230032041
:10061000BDE8F88323684EB95B68C3F3080325F887
:10062000023BE38D013B9BB2E385DFE7A268B2F5B5
:10063000805F02D032B9226922B95968C9B206F87E
:10064000011BEEE7596801F07F01F8E70220DFE7C0
:100650000120DDE72DE9F341044640B30368DE07DE
:1006600010D423689D075BD42368190700F19D808F
:1006700023685A0700F1BD80A369002B40F0248154
:1006800000202CE08D4B9A6802F00C02042A07D05F
:100690009A6802F00C02082A0BD15B68590208D54F
:1006A000864B1B689A03DCD56368002BD9D10120E7
:1006B00015E06368814DB3F5803F13D12B6843F497
:1006C00080332B6000F0F0FD7C4E054633689B03C1
:1006D000C7D400F0E9FD401B6428F7D9032002B01D
:1006E000BDE8F081B3F5A02F04D12B6843F480233B
:1006F0002B60E3E72A6822F480322A602A6822F419
:1007000080222A60002BDDD100F0CEFD06462B684A
:100710009F03A6D500F0C8FD801B6428F7D9DDE74C
:10072000664B9A6812F00C0F07D09A6802F00C0220
:10073000082A11D15B685D020ED4604A13689907DC
:1007400002D5E368012BB2D11368216923F0F803C5
:1007500043EAC103136087E7E268594BB2B1012253
:100760001A6000F0A1FD554D06462B689B0707D582
:100770002B68226923F0F80343EAC2032B6073E776
:1007800000F092FD801B0228EFD9A7E71A6000F065
:100790008BFD4A4E054633689F077FF565AF00F035
:1007A00083FD401B0228F6D998E76269444B82B169
:1007B0000122C3F8802E00F077FD404E0546736F8E
:1007C0009B073FF555AF00F06FFD401B0228F6D99F
:1007D00084E7C3F8802E00F067FD384E0546736F3E
:1007E0009F077FF545AF00F05FFD401B0228F6D95B
:1007F00074E7324B1A6C12F0805228D101921A6CB5
:1008000042F080521A641B6C03F080530193019BE9
:1008100001272C4D2B68D8051BD5A368274D012B2C
:1008200027D12B6F43F001032B6700F03DFD234ED2
:10083000054641F28838336F9A0739D5002F3FF4C7
:100840001BAF1E4A136C23F08053136414E7002778
:10085000DFE72B6843F480732B6000F025FD06462C
:100860002B68D905D9D400F01FFD801B0228F7D9C9
:1008700034E7052B04D12B6F43F004032B67D0E73B
:100880002A6F22F001022A672A6F22F004022A67E7
:10089000002BCAD100F008FD41F2883806462B6FC4
:1008A0009B07CBD500F000FD801B4045F7D915E72D
:1008B00000F0FAFC401B4045BDD90FE7003802406C
:1008C0000000474200700040374DAA6802F00C0259
:1008D000082A3ED0022B354B4FF000021A662BD16E
:1008E00000F0E2FC06462B6899011FD4D4E90732D8
:1008F0001343626A43EA8213E26A43EA0263A26A2A
:100900005208013A43EA02436B60284B264D01220C
:100910001A6600F0C9FC04462B689A013FF5B0AE98
:1009200000F0C2FC001B0228F6D9D7E600F0BCFCA0
:10093000801B0228D7D9D1E600F0B6FC04462B680C
:100940009B017FF59DAE00F0AFFC001B0228F6D99D
:10095000C4E6012B3FF4ABAE6B68E26903F480019F
:1009600091427FF4A4AE216A03F03F028A427FF4F1
:100970009EAE616A47F6C0721A40B2EB811F7FF4E7
:1009800096AEA26A520803F44031013AB1EB024F2D
:100990007FF48DAEE26A03F07063B3EB026F14BFB5
:1009A000012000209BE600BF0038024000004742C3
:1009B000134908B58B6803F00C03042B1CD0082BDB
:1009C0001CD14A684B68496813F4800314BF0D4872
:1009D0000D48C1F3881118BF002302F03F02A1FBAC
:1009E0000001FFF7E5FB064B5B68C3F301430133EE
:1009F0005B00B0FBF3F008BD0248FCE70248FAE7F1
:100A00000038024040787D010024F4002DE9F041D7
:100A10000D46044610B90120BDE8F081434B1A6829
:100A200002F00F028A4228D321688F072DD4C8070D
:100A300040D43E4B1A6802F00F02AA4265D82268E1
:100A400051076BD4130707D5394A2169936823F4FA
:100A5000604343EAC1039360FFF7AAFF344B354A72
:100A60009B68C3F30313D35CD840334B1860334BFC
:100A7000186800F0CFFB0020CEE7CAB21A701B68DE
:100A800003F00F038B42C6D1CEE7294B11F0040FC0
:100A90001EBF9A6842F4E0529A600E0742BF9A68FD
:100AA00042F460429A609A68A06822F0F002024321
:100AB0009A60BCE762681E4B012A1CD11B6813F4C4
:100AC000003FA8D01A4EB36823F003031343B3606A
:100AD00000F0EAFB41F288380746B368626803F029
:100AE0000C03B3EB820FA4D000F0DEFBC01B40452B
:100AF000F3D9032090E7911E01291B6802D813F057
:100B0000007FDEE713F0020FDBE7EAB21A701B6822
:100B100003F00F03AB427FF47EAF90E70449E06837
:100B20008B6823F4E05303438B608BE7003C024067
:100B300000380240EC2F00080000002008000020D0
:100B4000044B054A9B68C3F38223D35C034A1068B5
:100B5000D840704700380240E42F00080000002011
:100B6000044B054A9B68C3F34233D35C034A1068C5
:100B7000D840704700380240E42F000800000020F1
:100B8000094910B50C6924F440740C610C6944F4F3
:100B900040740C610C6944F001040C610260BFF305
:100BA0006F8F436010BD00BF003C0240074B1A69C5
:100BB00022F440721A611A6942F400721A611A69C9
:100BC00042F001021A610160704700BF003C024020
:100BD000074B1A6922F440721A611A6942F4807252
:100BE0001A611A6942F001021A610180704700BF60
:100BF000003C0240204BDA68D00606D51F49CA697E
:100C000042F01002CA611022DA60DA68910606D555
:100C10001A49CA6942F00802CA612022DA60164BFA
:100C2000DA68520606D51549CA6942F00402CA615B
:100C30004022DA60DA68100606D51049CA6942F027
:100C40000202CA618022DA600B4BDA68D10507D54F
:100C50000A49CA6942F00102CA614FF48072DA603F
:100C6000DA68920706D50549CA6942F02002CA61CE
:100C70000222DA60704700BF003C0240840000207E
:100C8000064B1A69002ABFBF054A5A6002F1883232
:100C90005A60BABF1869C00F00207047003C02407C
:100CA00023016745034A136943F0004313610020A1
:100CB000704700BF003C0240114B70B50022044653
:100CC000DA6100F0F1FA0F4D0646EB68DA030CD456
:100CD000EB68DB0744BF0123EB60E86810F4F970B0
:100CE00007D0FFF787FF012003E0611CEDD00CB9AE
:100CF000032070BD00F0D8FA801BA042E5D9F7E7C9
:100D000084000020003C02402DE9F0411F4E98462F
:100D1000337E012B07460D46144635D001234CF295
:100D200050303376FFF7C8FFB0B9CFB9184B1A6906
:100D300022F440721A611A691A611A69E4B242F027
:100D400001021A612C704CF25030FFF7B5FF104AC7
:100D5000136923F00103136100233376BDE8F081AA
:100D6000012F04D1A1B22846FFF732FFEBE7022F93
:100D700004D121462846FFF719FFE4E722464346FF
:100D80002846FFF7FDFEDEE70220E7E784000020AB
:100D9000003C02400C4B1A6922F440721A6103298C
:100DA0001A690BD142F4004242F004021A611A6936
:100DB00042EA002040F48030186170470129F3D0E6
:100DC00042F40042F2E700BF003C02400F4B1A69B8
:100DD00022F440721A611A69022994BF09024FF481
:100DE00040710A431A611A6922F0F8021A611A69FD
:100DF0000B2888BF043042EAC00242F002021A61A6
:100E00001A6942F480321A61704700BF003C024008
:100E1000144B1A6891050FD51A6822F400721A60F3
:100E20001A6842F400621A601A6822F400621A60BA
:100E30001A6842F400721A600A4B1A6852050FD5FC
:100E40001A6822F480621A601A6842F480521A60AA
:100E50001A6822F480521A601A6842F480621A609A
:100E6000704700BF003C02402DE9F843DFF89C804A
:100E700098F81830012B05460F4642D001234CF25A
:100E8000503088F81830FFF717FF0446B8B94FF014
:100E9000FF333B602B68012B17D16968287CFFF773
:100EA00079FF4CF25030FFF707FF174A136923F41C
:100EB000004323F0040304461361FFF7A9FF002356
:100EC00088F818302046BDE8F883AE68DFF838901F
:100ED000D5E902231344B342EFD9297C3046FFF70A
:100EE00075FF4CF25030FFF7E7FED9F8103023F0D1
:100EF000FA03C9F8103010B13E600446DDE7013650
:100F0000E6E70224DEE700BF003C02408400002048
:100F10002DE9F74FDFF8BC916C4A00230D680124DE
:100F20009C4004EA0506AC4340F0B7804D680327B7
:100F300005F003044FEA430807FA08FC671E012F77
:100F40006FEA0C0C34D8876807EA0C0ECF6807FAF2
:100F500008F747EA0E078760476827EA060EC5F3D9
:100F600000179F4047EA0E074760C76807EA0C0E64
:100F70008F6807FA08F747EA0E07022CC76019D1F5
:100F80004FEAD30A00EB8A0A03F0070BDAF8207065
:100F90004FEA8B0B4FF00F0E0EFA0BFE27EA0E0EE8
:100FA0000F6907FA0BF747EA0E07CAF8207001E04D
:100FB000032CDAD1076804FA08F407EA0C073C436B
:100FC00015F4403F046068D000240194D9F84440EF
:100FD00044F48044C9F84440D9F8444023F003075E
:100FE00007F1804704F4804407F59C37019403F02F
:100FF000030C019CD7F808E04FEA8C0C0F2404FA8C
:101000000CF42EEA040E324CA0424DD004F580645C
:10101000A0424BD004F58064A04249D004F580641E
:10102000A04247D004F58064A04245D004F5806416
:10103000A04243D004F58064A04241D004F580640E
:10104000A0423FD004F58064A0423DD004F5806406
:10105000A04214BF0A24092404FA0CF444EA0E0442
:10106000BC609468F74315F4801F0CBF3C403443C8
:101070009460D46815F4001F0CBF3C403443D46026
:10108000546815F4003F0CBF3C403443546014686E
:10109000ED0354BF3C40344314600133102B7FF404
:1010A0003DAF03B0BDE8F08F0024D5E70124D3E7BE
:1010B0000224D1E70324CFE70424CDE70524CBE7BE
:1010C0000624C9E70724C7E70824C5E7003C014018
:1010D00000000240003802400369194214BF012099
:1010E000002070470AB1816170470904FBE70000E6
:1010F00037B500230193184B184D1A6C42F08052FB
:101100001A641B6C03F080530193019B144B012262
:101110001A6400F0C9F804466B68DA030BD5104B6B
:101120000E4D01225A6400F0BFF804466B689B0321
:101130000AD5002006E000F0B7F8001BB0F57A7F72
:10114000EAD9032003B030BD00F0AEF8001BB0F5C3
:101150007A7FEBD9F5E700BF00380240007000400D
:1011600000000E420749CA6822F4E062030212043A
:1011700003F4E063120C134343F0BF6343F4003302
:10118000CB60704700ED00E0164B30B5DC68C4F36F
:101190000224C4F10703251D042B28BF0423062DB8
:1011A0004FF0FF358CBF033C002405FA03F321EA1E
:1011B0000303A54022EA0502A340002843EA0203F4
:1011C000ACBF00F16040084A4FEA0313B8BF00F01B
:1011D0000F00DBB2AABF00F56140135480F8003362
:1011E00030BD00BF00ED00E014ED00E00138B0F1CB
:1011F000807F0BD24FF0E023054A5861F02182F83E
:1012000023100020072298611A617047012070475F
:1012100000ED00E038B50E4B1A784FF47A73B3FB4B
:10122000F2F30C4A05461068B0FBF3F0FFF7DEFF5F
:10123000044658B90F2D09D8024629464FF0FF3011
:10124000FFF7A2FF044B20461D6038BD0120FCE7DC
:1012500004000020000000200800002008B50B4B0F
:101260001A6842F400721A601A6842F480621A60C6
:101270001A6842F480721A600320FFF773FF0F2090
:10128000FFF7C8FF00F0AAF9002008BD003C0240AB
:10129000034A044B11681B780B441360704700BF6E
:1012A000A400002004000020014B1868704700BF14
:1012B000A400002038B50446FFF7F6FF631C1CBFEE
:1012C000054B1B78054618BFE418FFF7EDFF431BDD
:1012D000A342FAD338BD00BF0400002030B595B05A
:1012E000102200210AA801F0EFF81422002103A81F
:1012F00001F0EAF8224B002101911A6C42F0805271
:101300001A641B6C03F080530193019B1D4B0291E7
:101310001A6842F440421A601B6803F44043029387
:10132000029B01214FF480330224CDE908134FF4CE
:101330008003CDE90E430F25D823CDE9105308A82B
:10134000042312941393FFF785F908B172B6FEE7F0
:10135000FFF7CEFE08B172B6FEE705904FF4A0523B
:101360004FF48053052103A8CDE90354CDE90623AA
:10137000FFF74CFB08B172B6FEE715B030BD00BFF9
:10138000003802400070004008B5FFF767FFFFF724
:10139000A5FF00F009F800F081F800F09BF800F0DC
:1013A000ABF9FEE772B6FEE7F0B514228BB00DEB99
:1013B0000200002101F088F800242A4B01941A6BE6
:1013C000294D2A4E42F004021A631A6B02F00402FD
:1013D0000192019A02941A6B42F020021A631A6B6E
:1013E00002F020020292029A03941A6B42F08002E9
:1013F0001A631A6B02F080020392039A04941A6B28
:1014000042F001021A631B6B03F0010304932846A8
:1014100001224FF40051049BFFF764FE2246304640
:101420001021FFF75FFE01274FF4005305A928465E
:10143000CDE90537CDE90744FFF76AFD102305A97B
:101440003046CDE90537CDE90744FFF761FD0C23B0
:1014500005A92846CDE905340794FFF759FD0BB0DF
:10146000F0BD00BF003802400008024000140240F6
:1014700007B50122019010210648FFF733FE4FF017
:10148000FF33012201A90448FFF73FF8019803B098
:101490005DF804FB00140240A80000200B480C4A31
:1014A00008B54FF46123C0E9002300230C22C0E9F2
:1014B0000233C0E905230361C361FEF7F7FF18B1EA
:1014C000BDE80840FFF76EBF08BD00BFF000002078
:1014D000004C00400B480C4A08B54FF4E123C0E92A
:1014E000002300230C22C0E90233C0E90523036175
:1014F000C361FEF7DBFF18B1BDE80840FFF752BF3C
:1015000008BD00BFA80000200078004010B51422DC
:101510008AB0044600210DEB020000F0D5FF2368DD
:10152000244A934222D1244B2448002101911A6C71
:1015300042F400221A641A6C02F400220192019A09
:1015400002911A6B42F001021A631B6B03F0010354
:101550000293029B02220323CDE90532089308235C
:10156000099305A9FFF7D4FC0AB010BD144A9342B1
:10157000FAD1114B1348002103911A6C42F08042BA
:101580001A641A6C02F080420392039A04911A6B57
:1015900042F020021A631B6B03F020030493049BA8
:1015A000C02202230321CDE905230823CDE9081336
:1015B00005A9D7E7004C0040003802400000024077
:1015C0000078004000140240FEE7FEE7FEE7FEE779
:1015D000FEE7704770477047FFF75ABE82B00C4B6A
:1015E000002100915A6C42F480425A645A6C02F411
:1015F00080420092009A01911A6C42F080521A6463
:101600001B6C03F080530193019B02B0704700BF35
:10161000003802400B4A116810B5034609B90A495F
:101620001160106809490A4C0344091B8B4206D912
:1016300000F098FF0C2303604FF0FF3010BD1360E3
:10164000FCE700BF38010020E00600200000032076
:101650000004000070B50D4614460E46731B9C42F4
:1016600001DC204670BDAFF3008006F8010BF5E702
:1016700070B50D4614460E46731B9C4201DC204695
:1016800070BD16F8010BFFF7F3FEF5E74FF0FF30E2
:1016900070474FF400534B600020704701207047A3
:1016A00000207047DFF834D0FEF738FE0C480D49B3
:1016B0000D4A002302E0D458C4500433C4188C42AD
:1016C000F9D30A4A0A4C002301E013600432A24213
:1016D000FBD300F04DFFFFF757FE704700000320DB
:1016E0000000002068000020283400086800002066
:1016F000DC060020FEE7000008B500F063FB20B127
:1017000000F04CFB00F0D6FAFEE71F480421FFF77B
:10171000E3FC50B900F18040082100F50230FFF7EA
:10172000DBFC10B900F0C6FAEEE7184B1B6803F1BA
:101730006042B2F5403F06D303F15F4303F5750302
:10174000B3F5803FE0D272B64FF0E0220023136180
:101750004FF0FF31536193619A0002F1604202F54C
:1017600061420133082BC2F88010C2F88011F3D116
:10177000064A074953680B60064912680B6082F3FA
:1017800008889847C0E700BF0008024000800008B2
:101790003C0100204001002041F4807141F221030E
:1017A00049004000CA0548BF0130C20348BF584045
:1017B000CA03F5D580B2704738B5044645180020F5
:1017C000AC4280B207D30021FFF7E6FFBDE8384006
:1017D0000021FFF7E1BF14F8011BFFF7DDFFEFE782
:1017E0002DE9F04FDFF84CA28C4BDFF84CB2CAF871
:1017F00000308BB04FF0000901900026374603E01F
:101800004FF0010937464E4685484FF47A7301225E
:101810000DF11301FEF7C7FE0446054600285CD112
:101820009DF81330042B05D037D8012B4BD0022B59
:101830004BD0012400259DF813308BF800307F2D0C
:101840004AD9784976484FF47A732A1DFEF7ABFEE1
:101850000446002841D19BF803309BF80220DB436B
:10186000DBB29A423CD1DFF8D481039208F1010344
:1018700018F805105B5D404603EB012329460293EF
:10188000FFF79AFF029B039A834229D1B2423ED0CE
:10189000152000F0A1F92746B6E703F0DF02412A40
:1018A00016D0182BC5D15E484FF47A7301220DF182
:1018B0001301FEF778FE044660B99DF81330182B2B
:1018C000B7D10225B7E78025B5E74FF48065B2E7C9
:1018D0000224B0E70124AEE784B1022C00F0978027
:1018E000B9F1000F00D00137052F40F29580182084
:1018F00000F072F9182000F06FF985E706201DB19D
:1019000000F06AF9022455E000F066F975E7002E50
:1019100060D19BF80440002C58D0434B3246184607
:1019200018F8011B09B1402A48D10023835406AAA4
:10193000104618F80310202901D0102B42D128336B
:101940006B44002405A903F8104C00F0D5F8019B66
:101950001A68364B9A421DD9182335488DF8123033
:1019600001221021FFF7BEFB4FF4801301220DF17D
:1019700012012B48FEF7C9FD4FF4801301220DF12F
:1019800012012748FEF7C1FD294822461021FFF722
:10199000A9FB0526214800F05DF8019A059B13601C
:1019A000062000F019F9432000F016F9002E3FF44C
:1019B00027AF052420460BB0BDE8F08F03F8011BCC
:1019C0000132ADE702F8011B0133B2E7062000F057
:1019D00003F9EFE7DAF80000AA08414600F04EF8F4
:1019E000074660B9DAF8003006202B440136CAF801
:1019F0000030F6B200F0F0F84FF0010904E71820CB
:101A000000F0EAF8182000F0E7F80424D2E71820E4
:101A100000F0E2F8182073E743206CE7008000082C
:101A2000A8000020460100205005002001801B0076
:101A3000001402404C050020440100204801002011
:101A400008B5FFF71DF9024B7322DA6008BD00BF2D
:101A5000003C02407FB5FFF7F3FF002301931422FF
:101A60000223694601A8CDE903320593FFF7FCF98B
:101A7000003818BF012007B05DF804FB2DE9F041E4
:101A8000DFF83C80044617460D1F0026BE4201D0F9
:101A9000444501D300200FE06A680023214602205C
:101AA000FFF732F938B9226855F8043F9A4205D158
:101AB00004340136EAE70320BDE8F0810220FBE7A9
:101AC000FCFF1B08F0B50A220A4C00231746B1FBA5
:101AD000F4F606F13005EDB2302D04FB1611C554B5
:101AE000B4FBF7F400D11BB10133013AEFD1F0BDE3
:101AF0000023FAE700CA9A3B70B50378302B0446FE
:101B000004D1437803F0DF03582B15D000231A4685
:101B10000A26A05C48BB0B60012001320B2A20D0B2
:101B20000028F6D01FE0A3F14105052D4FEA02126F
:101B300094BF373B573B0DE000220220235C6BB182
:101B400023F02005413D052DEDD9303BDDB2092DB7
:101B500004D8120101300B281A44EFD1235C0BB1D9
:101B6000002070BD0A600120FBE700F0DF054B2D6F
:101B700003D1002AF4D09B02CDE74D2D03D1002ADA
:101B8000EED01B05C7E7A0F13005092DE8D806FB0C
:101B90000303303B0020C0E770B5002304469AB22F
:101BA0001E46A55C0133002DF9D109480122102100
:101BB000FFF798FAB2B2214606486423FEF7A5FC67
:101BC0002A460348BDE870401021FFF78BBA00BFDA
:101BD00000140240A800002013B50F4B8DF8070039
:101BE00093F841200D48A02A04BF202283F8412009
:101BF00010210122FFF776FA64230DF1070101227B
:101C00000548FEF782FC0022044610210348FFF736
:101C100069FA204602B010BDA8000020001402405E
:101C20001FB5002319480093CDE90133CDF80B30DF
:101C3000FFF7B2FF6846FFF7D3FD052823D8DFE89A
:101C400000F0032220221E1C1148FFF7A5FF1148B7
:101C5000FFF7A2FF009901A8FFF734FF0E48FFF736
:101C60009BFF01A8FFF798FF0C48FFF795FF0C4872
:101C7000FFF792FF05B05DF804FB0A48F8E70A4851
:101C8000F6E70A48F4E70A48F2E700BFFC2F00082D
:101C900037300008500500208A30000894300008D2
:101CA0009D300008B2300008EF300008093100080C
:101CB0001F31000808B51848FFF76EFF1748FFF7F7
:101CC0006BFF1748FFF768FF1648FFF765FF1448DA
:101CD000FFF762FF1048FFF75FFF1348FFF75CFF55
:101CE0001248FFF759FF1248FFF756FFFFF798FF1A
:101CF0001048FFF751FF4FF47A70FFF7DBFABFF39C
:101D00004F8F0D490D4BCA6802F4E0621343CB605C
:101D1000BFF34F8F00BFFDE73F3100088831000857
:101D2000D031000819320008BD32000861320008C5
:101D300096320008C232000800ED00E00400FA0507
:101D400030B587B0FEF79CFF044620B1014610482D
:101D500000F072FA13E00223019005931725012386
:101D6000694601A8CDE90353FFF77EF8044648B160
:101D70000146009A074800F05FFAFEF793FF2046FD
:101D800007B030BDFEF78EFF03482946E0E700BFED
:101D9000EA320008043300082F33000808B506486B
:101DA00000F0B2FAFFF7CCFF20B10448BDE80840CC
:101DB00000F0AABA0248F9E7563300087333000866
:101DC0009433000808B5084B084A1968914208D1B5
:101DD0005A68074B9A4204D1064800F095FA012050
:101DE00008BD0020FCE700BF00FF1F087856341232
:101DF00000EFCDABBA3300082DE9F047089D0E4641
:101E000004460F46002B4AD194468C45B2FA82F222
:101E100060D942B1C2F12003974020FA03F30CFAD3
:101E200002FC1F4394404FEA1C4E1FFA8CF6B7FB8E
:101E3000FEF1230C0EFB117743EA074301FB06F08A
:101E400098420AD91CEB030301F1FF3780F015819A
:101E5000984240F21281023963441B1AA4B2B3FBC8
:101E6000FEF00EFB103344EA034400FB06F6A642E4
:101E70000AD91CEB040400F1FF3380F00081A64274
:101E800040F2FD806444023840EA0140A41B002176
:101E90001DB1D4400023C5E90043BDE8F0878B4263
:101EA00005D90DB1C5E9000100210846F5E7B3FAEF
:101EB00083F1002946D1B34202D3824200F2F58079
:101EC000841A66EB030201201746002DE5D0C5E910
:101ED0000047E2E7002A40F09380A1EB0C034FEAB1
:101EE0001C471FFA8CFE0121B3FBF7F607FB1630E7
:101EF000230C43EA00430EFB06F0984208D91CEB82
:101F0000030306F1FF3802D2984200F2D080464621
:101F10001B1AA4B2B3FBF7F007FB103344EA0344E7
:101F20000EFB00FEA64508D91CEB040400F1FF33AC
:101F300002D2A64500F2B6801846A4EB0E0440EA91
:101F40000640A5E7C1F120078B4022FA07FC4CEAC6
:101F5000030C06FA01FE20FA07F426FA07F344EA16
:101F60000E0400FA01F84FEA1C404FEA1449B3FB93
:101F7000F0FE1FFA8CF600FB1E3349EA03430EFB0A
:101F800006F9994502FA01F20BD91CEB03030EF195
:101F9000FF3A80F08580994540F28280AEF1020ED2
:101FA0006344A3EB0909A4B2B9FBF0F300FB139956
:101FB00044EA094403FB06F6A64208D91CEB0404D4
:101FC00003F1FF3068D2A64266D9023B644443EA7B
:101FD0000E40A41BA0FB02E6B4427346B14652D3A6
:101FE0004FD05DB1B8EB030264EB090404FA07F7C4
:101FF00022FA01F31F43CC40C5E9007400214CE7ED
:10200000C2F1200120FA01F30CFA02FC26FA01F1D8
:10201000964033434FEA1C471FFA8CFEB1FBF7F0A2
:1020200007FB1016190C41EA064100FB0EF68E4222
:1020300004FA02F408D91CEB010100F1FF382DD29B
:102040008E422BD902386144891B9BB2B1FBF7F653
:1020500007FB161143EA014306FB0EF1994208D92A
:102060001CEB030306F1FF3814D2994212D9023E49
:1020700063445B1A46EA004136E73946EDE6184606
:1020800002E7F045ADD2BEEB020366EB0C06013869
:10209000B146A6E74646ECE7034698E74046D3E755
:1020A000D6467EE76444023847E708460DE7023E1D
:1020B00063442DE7002310B50446C0E90033C0E9AE
:1020C0000433836081814366C2818361194608229B
:1020D0005C3000F0F9F90D4B63620D4BA3620D4BC0
:1020E000E3620D4B23630D4B24629C4206D003F147
:1020F0006802944202D0D0339C4205D104F15800CA
:10210000BDE8104000F058BA10BD00BF1923000808
:102110003B23000873230008972300089005002044
:10212000024A0349034800F069B800BF0C000020D0
:10213000552E00081C00002041680C4B994210B538
:10214000044601D000F086FEA168094B994202D0F6
:10215000204600F07FFEE168064B994204D02046FD
:10216000BDE8104000F076BE10BD00BF9005002015
:10217000F80500206006002010B50B4B0B4C0C4AF4
:102180001A60204600220421FFF794FF04F1680042
:1021900001220921FFF78EFF04F1D0000222BDE8E1
:1021A00010401221FFF786BFC806002090050020CE
:1021B00021210008014800F000BA00BFD10600202C
:1021C000014800F0FBB900BFD106002010B504465D
:1021D000FFF7F0FF236A1BB1BDE81040FFF7F0BF27
:1021E000044B2362044B1B68002BF5D1FFF7C4FF9F
:1021F000F2E700BF39210008C80600202DE9F843A6
:102200000746884614460026D4E90195B9F101092C
:1022100005D52468002CF7D13046BDE8F883AB899A
:10222000012B07D9B5F90E30013303D029463846C2
:10223000C04706436835E9E70FB407B5064904AB64
:10224000086853F8042B8168019300F0DBFA03B0AF
:102250005DF804EB04B0704718000020036A70B505
:10226000846805460E460BB9FFF7B0FF636EDB07C7
:1022700005D4A389980502D4A06D00F09EF9A38926
:10228000190702D52369002B35D12146284600F0D5
:10229000C5F880B34FF0FF35636EDA0705D4A38924
:1022A0009B0502D4A06D00F089F9284670BD002B73
:1022B00004DAA2699A4217DC0A2915D023685A1C4D
:1022C00022601970A36816F8011F013BA360002962
:1022D000EDD1002B11DA22460A21284600F05FF8E2
:1022E0000130D7D00A25D7E72246284600F057F814
:1022F0000130E7D1CEE7013EE4E723685A1C2260B3
:102300000A221A70EEE70000024B01461868FFF738
:10231000A5BF00BF1800002010B50C46B1F90E1083
:1023200000F0FCF80028ABBF636DA3891B1823F4F1
:102330008053ACBF6365A38110BD2DE9F0411F46FA
:102340008B89DB0505460C46164605D5B1F90E10FE
:102350000223002200F0D0F8A389B4F90E1023F470
:102360008053A38132463B462846BDE8F04100F049
:10237000E7B810B50C46B1F90E1000F0BDF8431CDB
:10238000A38915BF606523F4805343F48053A38170
:1023900018BFA38110BDB1F90E1000F09DB8F8B5BB
:1023A0000E461446054618B1036A0BB9FFF70EFF37
:1023B000A369A360A3891A0701D5236943B92146FC
:1023C000284600F02BF818B14FF0FF373846F8BD1B
:1023D00023682269981A6369F6B28342374605DC9E
:1023E0002146284600F036FD0028EDD1A368013BC8
:1023F000A36023685A1C22601E706269431C9A42C3
:1024000004D0A389DB07E1D50A2EDFD12146284677
:1024100000F020FD0028D9D0D6E7000038B5294BC0
:10242000054618680C4618B1036A0BB9FFF7CEFED3
:10243000B4F90C30190722D4DA0607D409222A602D
:1024400043F04003A3814FF0FF3033E0580712D52B
:10245000616B41B104F14403994202D0284600F077
:10246000AFF800236363A38923F02403A38100232F
:10247000636023692360A38943F00803A381236970
:102480004BB9A38903F42073B3F5007F03D0214631
:10249000284600F02DFDB4F90C3013F001020AD0EB
:1024A0000022A26062695242A261226942B913F01D
:1024B0008000C5D138BD990758BF6269A260F4E7B2
:1024C0000020F7E71800002002440346934200D1A1
:1024D000704703F8011BF9E738B5064D00230446A1
:1024E00008462B60FFF7D2F8431C02D12B6803B1DA
:1024F000236038BDCC06002038B5074D0446084699
:10250000114600222A601A46FFF7CAF8431C02D17E
:102510002B6803B1236038BDCC06002038B5074DC9
:1025200004460846114600222A601A46FFF792F830
:10253000431C02D12B6803B1236038BDCC060020B8
:1025400038B5074D04460846114600222A601A464F
:10255000FFF78EF8431C02D12B6803B1236038BD0E
:10256000CC060020014B1868704700BF18000020FF
:1025700070B50D4D0D4C641BA4100026A64209D168
:102580000B4D0C4C00F022FD641BA4100026A6424B
:1025900005D170BD55F8043B98470136EEE755F874
:1025A000043B98470136F2E7203400082034000845
:1025B000203400082434000870477047704700003A
:1025C00038B50546002941D051F8043C0C1F002BBA
:1025D000B8BFE41800F0E0F81D4A136833B963602F
:1025E00014602846BDE8384000F0DCB8A34208D9A2
:1025F000206821188B4201BF19685B6809182160A7
:10260000EDE71A465B680BB1A342FAD9116850187E
:10261000A0420BD120680144501883421160E0D1E0
:1026200018685B68536008441060DAE702D90C232D
:102630002B60D6E7206821188B4204BF19685B68BD
:10264000636004BF091821605460CAE738BD00BF49
:10265000D806002070B50F4E0C463168054611B9FA
:1026600000F0A4FC30602146284600F09FFC431C8B
:1026700003D14FF0FF34204670BDC41C24F0030486
:10268000A042F8D0211A284600F090FC0130F2D187
:10269000EFE700BFD40600202DE9F843CD1C25F05C
:1026A000030508350C2D38BF0C25002D064601DB2F
:1026B000A94204D90C2333600020BDE8F883DFF879
:1026C000D48000F069F8D8F800301C4644BB294695
:1026D0003046FFF7BFFF431C044658D1D8F80040EE
:1026E0002746002F43D1002C4BD023683946304673
:1026F00004EB030900F05AFC814542D121686D1AB0
:1027000029463046FFF7A6FF01303AD023682B4414
:102710002360D8F800305A6862BBC8F800700FE038
:102720002268521B20D40B2A17D96119A3422560B5
:1027300018BF5960636808BFC8F8001062514B6049
:10274000304600F02FF804F10B00231D20F00700A5
:10275000C21A1CBF1B1AA350AFE76268A3420CBF8A
:10276000C8F800205A60EBE723466468AEE73C46B1
:102770007F68B6E71A465B68A342FBD1002353602B
:10278000DEE70C233360304600F00CF894E7056078
:10279000D6E700BFD80600200148FFF70EBF00BFF4
:1027A000D00600200148FFF709BF00BFD006002077
:1027B0009368013B002B10B4936008DA9469A3423C
:1027C00001DB0A2903D15DF8044BFFF7E8BD13686C
:1027D000581C1060197008465DF8044B7047F8B536
:1027E00006460F461446D518AC4201D1002007E03A
:1027F00014F8011B3A463046FFF7DAFF431CF3D1C9
:10280000F8BD00002DE9F04F0D469DB014469846E6
:10281000064618B1036A0BB9FFF7D8FC6B6ED907EF
:1028200005D4AB899A0502D4A86DFFF7C6FEAB8923
:102830001B0701D52B699BB929463046FFF7EEFDF2
:1028400070B16B6EDC0704D54FF0FF301DB0BDE8F2
:10285000F08FAB899805F7D4A86DFFF7AFFEF3E7CB
:102860000023099320238DF82930CDF80C803023E4
:10287000DFF8AC818DF82A304FF0010923469A46E3
:1028800013F8012B0AB1252AF9D1BAEB040B0BD0AE
:102890005B46224629463046FFF7A1FF013000F093
:1028A000A780099A5A4409929AF80030002B00F048
:1028B0009F8000234FF0FF32CDE905230AF1010A82
:1028C000049307938DF853301A935446052214F855
:1028D000011B5348FDF78CFC049AD8B9D10644BFBC
:1028E00020238DF85330130744BF2B238DF853302A
:1028F0009AF800302A2B15D0079A544600204FF042
:102900000A0C214611F8013B303B092B4BD9B0B1E1
:10291000079214E0A0EB080309FA03F313430493AE
:10292000A246D2E7039B191D1B680391002BBBBF76
:102930005B4242F0020207930793B8BF04922378E8
:102940002E2B0AD163782A2B32D1039B1A1D1B68C8
:10295000039243EAE37302340593DFF8D4A02178AD
:1029600003225046FDF744FC38B1049BA0EB0A005B
:102970004022824013430134049314F8011B294878
:102980008DF828100622FDF733FC00283FD0264B97
:102990001BBB039B073323F0070308330393099BF7
:1029A0003B4409936AE70CFB02320C460120A8E77E
:1029B00000230134059319464FF00A0C204610F805
:1029C000012B303A092A03D9002BC6D00591C4E760
:1029D0000CFB012104460123F0E703AB00932A46D8
:1029E000124B04A93046AFF300800746781CD6D1BD
:1029F0006B6ED90705D4AB899A0502D4A86DFFF791
:102A0000DDFDAB895B063FF51FAF09981EE703AB01
:102A100000932A46054B04A9304600F079F8E4E714
:102A2000E5330008EF33000800000000DF2700084E
:102A3000EB3300082DE9F047164698468A680B6983
:102A4000DDF820909342B8BF1346336091F84320DD
:102A500007460C460AB1013333602368990642BF2A
:102A6000336802333360256815F0060506D104F19A
:102A7000190AE36832689B1AAB4226DC94F84330AB
:102A80002268003B18BF012392062BD404F14302B5
:102A900041463846C84701301ED02368226903F0FA
:102AA0000603042B02BFE5683368ED1AA3680CBF68
:102AB00025EAE57500259342C4BF9B1AED18002650
:102AC0001A34B5421AD1002008E00123524641468B
:102AD0003846C847013003D14FF0FF30BDE8F087DA
:102AE0000135C6E7E1185A1C302081F84300224422
:102AF00094F8451082F843100233C7E701232246B9
:102B000041463846C8470130E6D00136D9E70000D3
:102B10002DE9FF470F7E0C9E782F914680460C468C
:102B20009A4601F1430207D8622F0AD8002F00F01D
:102B3000D180582F00F0B88004F1420684F842702A
:102B40003AE0A7F16303152BF6D801A151F823F061
:102B5000A92B0008BD2B0008392B0008392B0008D1
:102B6000392B0008392B0008BD2B0008392B000831
:102B7000392B0008392B0008392B0008BB2C000822
:102B8000E72B0008752C0008392B0008392B0008AA
:102B9000DD2C0008392B0008E72B0008392B000832
:102BA000392B00087D2C000833681A1D1B68326021
:102BB00004F1420684F8423001239CE03368206827
:102BC000191D3160060601D51D6803E04506FBD5D9
:102BD000B3F90050002D03DA2D236D4284F8433001
:102BE00058480A2311E021683368080653F8045B4B
:102BF00002D4490648BFADB26F2F5248336014BFAC
:102C00000A230823002184F843106668A660002E7A
:102C100005DB21682E4321F0040121604BD01646CC
:102C2000B5FBF3F103FB1157C75D06F8017D2F4695
:102C3000BB420D46F4D9082B0BD12368DF0708D51A
:102C4000236961689942DEBF302306F8013C06F132
:102C5000FF36921B2261CDF800A04B4603AA214605
:102C60004046FFF7E7FE01304AD14FF0FF3004B095
:102C7000BDE8F087236843F02003236032487827BB
:102C800084F84570236831681F0651F8045B02D44C
:102C90005F0648BFADB23160D90744BF43F020039F
:102CA00023601DB11023ADE72648E9E7236823F030
:102CB00020032360F6E71646BDE73368256861699F
:102CC000181D30602E061B6801D5196002E06806E9
:102CD000FBD51980002323611646BCE733681A1D13
:102CE00032601E68626800213046FDF781FA08B143
:102CF000801B606063682361002384F84330AAE787
:102D00002369324649464046D0470130ADD023685A
:102D10009B0713D4E068039B9842B8BF1846A6E708
:102D20000123324649464046D04701309DD0013507
:102D3000E36803995B1AAB42F2DCEBE7002504F190
:102D40001906F5E7F633000807340008B1F90C203E
:102D50002DE9F041160705460C4654D44B68002B6C
:102D600002DC0B6C002B48DDE66A002E45D0002308
:102D700012F480522F68216A2B6030D0626DA389D3
:102D8000590705D56368D21A636B0BB1236CD21A4D
:102D90000023E66A216A2846B047431CA38906D16E
:102DA00029681D292BD82A4ACA40D60727D50022D0
:102DB0006260D9042269226004D5421C01D12B68CB
:102DC00003B96065616B2F60B9B104F144039942A6
:102DD00002D02846FFF7F4FB002363630DE00123D4
:102DE0002846B0470246501CC9D12B68002BC6D0DC
:102DF0001D2B01D0162B1ED12F60002022E043F0A6
:102E000040031BB21BE00F69002FF6D093070E683A
:102E100008BF4B690F6018BF0023A6EB07088B6043
:102E2000B8F1000FE9DD216AA66A43463A46284612
:102E3000B047002808DCB4F90C3043F04003A3810C
:102E40004FF0FF30BDE8F0810744A8EB0008E7E74A
:102E50000100402038B50B6905460C4613B9002522
:102E6000284638BD18B1036A0BB9FFF7AFF9B4F9BA
:102E70000C30002BF3D0626ED00704D4990502D435
:102E8000A06DFFF79AFB28462146FFF75FFF636EB0
:102E9000DA070546E4D4A3899B05E1D4A06DFFF7CA
:102EA0008DFBDDE770B50C46B1F90E10002996B028
:102EB00015461E460DDAA38913F0800F4FF000016E
:102EC00014BF40234FF48063002031602B6016B0A4
:102ED00070BD6A4600F048F80028ECDB019901F467
:102EE0007041A1F50053594259414FF48063EBE71B
:102EF0008B89F7B59D0706460C4607D504F14703B5
:102F0000236023610123636103B0F0BD01AB6A4616
:102F1000FFF7C8FF009F054639463046FFF7BCFB68
:102F200048B9B4F90C309A05EED423F0030343F00A
:102F30000203A381E2E7A389206043F08003A38119
:102F4000019BC4E904075BB1B4F90E10304600F0F0
:102F50001DF828B1A38923F0030343F00103A381E3
:102F6000A3891D43A581CFE738B5074D002304464B
:102F7000084611462B60FEF78CFB431C02D12B68E0
:102F800003B1236038BD00BFCC06002038B5064D24
:102F90000023044608462B60FEF780FB431C02D149
:102FA0002B6803B1236038BDCC06002038B5064D30
:102FB0000023044608462B60FEF72CFB431C02D17D
:102FC0002B6803B1236038BDCC060020F8B500BFE4
:102FD000F8BC08BC9E467047F8B500BFF8BC08BCFA
:042FE0009E46704752
:102FE40000000000010203040000000000000000D3
:102FF400010203040607080957616974696E6720B2
:10300400666F72207468652066696C6520746F2031
:1030140062652073656E74202E2E2E2028707265D2
:1030240073732027612720746F2061626F72742983
:103034000A0D000A0A0D2050726F6772616D6D6986
:103044006E6720436F6D706C65746564205375639F
:103054006365737366756C6C79210A0D2D2D2D2DA6
:103064002D2D2D2D2D2D2D2D2D2D2D2D2D2D2D2D8C
:103074002D2D2D2D2D2D2D2D2D2D2D2D0D0A204EAB
:10308400616D653A20000A0D2053697A653A200083
:103094002042797465730D0A002D2D2D2D2D2D2DB3
:1030A4002D2D2D2D2D2D2D2D2D2D2D2D0A000A0AE2
:1030B4000D54686520696D6167652073697A6520C0
:1030C400697320686967686572207468616E20742A
:1030D400686520616C6C6F776564207370616365EB
:1030E400206D656D6F7279210A0D000A0A0D56650F
:1030F40072696669636174696F6E206661696C6583
:1031040064210A0D000D0A0A41626F72746564201D
:10311400627920757365722E0A0D000A0D46616985
:103124006C656420746F20726563656976652074CC
:1031340068652066696C65210A0D000D0A3D3D3DF8
:103144003D3D3D3D3D3D3D3D3D3D3D3D3D3D3D3DAB
:103154003D3D3D3D3D3D3D3D3D3D3D3D3D3D3D3D9B
:103164003D3D3D3D3D3D3D3D3D3D3D3D3D3D3D3D8B
:103174003D3D3D3D3D3D3D3D3D3D3D3D3D3D3D3D7B
:103184003D3D3D000D0A3D20202020202020202010
:10319400202020202020202020202020202020202B
:1031A40020474433324634787820426F6F746C6F12
:1031B40061646572202020202020202020202020EF
:1031C400202020202020202020203D000D0A3D200A
:1031D40020202020202020202020202020202020EB
:1031E40020202020202020202020202020202020DB
:1031F40020202020202020202020202020202020CB
:1032040020202020202020202020202020202020BA
:103214002020203D000D0A3D2020202020202020B9
:1032240020202020202020202020202020466972D9
:103234006D776172652055706772616465204D6FAA
:1032440064652020202020202020202020202020F1
:1032540020202020202020202020203D00526561B5
:10326400647920666F72206669726D776172652079
:10327400646F776E6C6F61642076696120594D4F7D
:1032840044454D2070726F746F636F6C2E2E2E0D3B
:103294000A00506C656173652073746172742073E5
:1032A400656E64696E6720746865206669726D77FF
:1032B4006172652066696C652E0D0A0D0A000D0A9F
:1032C40053797374656D2077696C6C2072657374BF
:1032D40061727420696E2033207365636F6E64734A
:1032E4002E2E2E0D0A00466C61736820756E6C6F6D
:1032F400636B206661696C65643A2025640D0A007D
:10330400466C617368206572617365206661696CDF
:1033140065643A2025642C20736563746F7220659C
:1033240072726F723A2025750D0A00466C617368DB
:1033340020736563746F7220256C752065726173E8
:103344006564207375636365737366756C6C790D5E
:103354000A00436C656172696E6720626F6F746CFA
:103364006F6164657220666C61672E2E2E0D0046B7
:1033740061696C656420746F20636C65617220629E
:103384006F6F746C6F6164657220666C61670D00A9
:10339400426F6F746C6F6164657220666C61672044
:1033A400636C6561726564207375636365737366CA
:1033B400756C6C790D00426F6F746C6F616465722B
:1033C400207570677261646520666C61672064654E
:1033D40074656374656420696E20466C6173680D5E
:1033E40000232D302B2000686C4C00656667454631
:1033F400470030313233343536373839414243446B
:1034040045460030313233343536373839616263FA
:043414006465660085
:08341800D8CDFF7F0100000088
:04342000F9020008A5
:04342400D1020008C9
:103428000024F4000100000010000000000000006B
:1034380003000000900500201C0000200000000090
:1034480090050020F805002060060020000000001C
:103458000000000000000000000000000000000064
:103468000000000000000000000000000000000054
:103478000000000000000000000000000000000044
:0834880000000000000000003C
:04000005080016A534
:00000001FF
